:100000000C9434000C9451000C9451000C94510049
:100010000C9451000C9451000C9451000C9451001C
:100020000C9451000C9451000C9451000C94520209
:100030000C9451000C9451000C9451000C945100FC
:100040000C9451000C9451000C9451000C945100EC
:100050000C9451000C9451000C9451000C945100DC
:100060000C9451000C94510011241FBECFEFD8E026
:10007000DEBFCDBF11E0A0E0B1E0E2E0F5E002C0FC
:1000800005900D92A634B107D9F721E0A6E4B1E0BE
:1000900001C01D92A934B207E1F70E94F1010C944E
:1000A0007F020C9400009BB11BB895B115B895B1B7
:1000B00015B8611106C095B115B82B9A2C9A2D9AD6
:1000C00032C0613031F495B115B82A9A2C9A2D9A24
:1000D0002AC0623031F495B115B82A9A2B9A2D9A1C
:1000E00022C0633001F595B115B82A9A2B9A2C9A43
:1000F0001AC0483068F48BB19081292F30E0062E69
:1001000002C0220F331F0A94E2F7282B2BB904C038
:1001100095B18081892B85B94F5F31966F5F7F4F95
:10012000493039F7089597E0899FF0011124E05094
:10013000FF4F62E070E042E0DCCFCF93813009F402
:1001400047C0809147018A3050F461E080E00E940E
:10015000530060E0809147010E945300B5C09DECC0
:10016000899F912D1124969596959695990F292FF3
:10017000220F220F920F89130FC09DEC899F812DB2
:10018000112461E08695869586950E94530060E073
:1001900080E00E94530098C0CDEC8C9F812D1124EB
:1001A00061E08695869586950E945300809147016F
:1001B0008C9FC12D1124C695C695C695CC0F9C2F3A
:1001C000990F990FC90F60E08C1B0E9453007CC0EF
:1001D000809147018A30E0F461E080E00E945300A2
:1001E0002FE788E391E0215080409040E1F700C084
:1001F000000060E0809147010E9453002FE788E3F0
:1002000091E0215080409040E1F700C000005CC0C8
:100210009DEC899F912D1124969596959695990F11
:10022000292F220F220F920F891321C09DEC899F45
:10023000812D112461E08695869586950E94530054
:100240002FE788E391E0215080409040E1F700C023
:10025000000060E080E00E9453002FE788E391E017
:10026000215080409040E1F700C000002DC0CDEC4F
:100270008C9F812D112461E08695869586950E943C
:1002800053002FE788E391E0215080409040E1F750
:1002900000C00000809147018C9FC12D1124C6959C
:1002A000C695C695CC0F9C2F990F990FC90F60E08A
:1002B0008C1B0E9453002FE788E391E0215080407F
:1002C0009040E1F700C00000CF910895813029F1FE
:1002D000809148018A3050F463E080E00E9453002E
:1002E00062E0809148010E945300089563E081E03C
:1002F0000E945300809148019DEC899F912D11240B
:10030000969596959695990F292F220F220F920F69
:1003100062E0891B0E9453000895809148018A3051
:10032000E0F463E080E00E9453002FEF80E792E06A
:10033000215080409040E1F700C0000062E08091D1
:1003400048010E9453002FEF80E792E02150804047
:100350009040E1F700C00000089563E081E00E9452
:1003600053002FEF80E792E0215080409040E1F76A
:1003700000C00000809148019DEC899F912D1124BF
:10038000969596959695990F292F220F220F920FE9
:1003900062E0891B0E9453002FEF80E792E021501A
:1003A00080409040E1F700C00000089585E8809308
:1003B0007A0080E480937C000895ECE7F0E090817F
:1003C000907F908380648083EAE7F0E0808180649E
:1003D0008083808186FDFDCF8091780090917900A7
:1003E00008958CEF8AB98FE384B985B185B92B9ACA
:1003F0002C9A2D9A0E94D60188E09DE39093890063
:1004000080938800E1E8F0E0808188608083AFE637
:10041000B0E08C9182608C93808185608083789439
:10042000299881E00E94DD018F3E9240E0F0F8942F
:10043000809147018F5F809347018C3338F0809122
:1004400048018F5F809348011092470180914801D5
:100450008C3010F01092480181E00E949D0081E0F4
:100460000E946601789482E00E94DD018F3E9240F6
:1004700090F0F894809148018F5F8C3018F480934D
:10048000480102C01092480181E00E949D0081E075
:100490000E946601789480E00E949D0080E00E94A6
:1004A0006601BFCF1F920F920FB60F9211248F9348
:1004B000809146018C3338F0809147018F5F8093A3
:1004C000470110924601809147018C3338F08091AA
:1004D00048018F5F80934801109247018091480145
:1004E0008C3010F010924801809146018F5F80930C
:1004F00046018F910F900FBE0F901F901895F894A2
:02050000FFCF2B
:1005020001010101010100000101000000000101DF
:1005120000010100010101010100000100010100CF
:1005220000010101000101000101010001010101BD
:1005320001010101000000000101010101010101AD
:06054200010100000101AF
:00000001FF
