S0170000375365676D656E74732D436C6F636B2E7372656377
S11300000C9434000C9449000C9449000C9449005D
S11300100C9449000C9449000C9449000C94490038
S11300200C9449000C9449000C9449000C94490028
S11300300C9449000C9449000C9449000C94490018
S11300400C9449000C9449000C9449000C94490008
S11300500C9449000C9449000C9449000C944900F8
S11300600C9449000C94490011241FBECFEFD8E032
S1130070DEBFCDBF11E0A0E0B1E0E2EDF1E002C0EF
S113008005900D92AC38B107D9F70E94A2000C94E8
S1130090E7000C9400006115710531F42BB12BB904
S11300A0599A5A9A5B9A3EC06130710531F4589A54
S11300B02BB12BB95A9A5B9A35C06230710531F471
S11300C0589A599A2BB12BB95B9A2CC0633071059D
S11300D049F5589A599A5A9A2BB12BB923C027300B
S11300E0310564F045B180819181022E02C0880FF0
S11300F0991F0A94E2F7842B85B90DC04BB1808116
S11301009181880F991F82959295907F9827807F7F
S11301109827842B8BB92F5F3F4F329627303105B8
S1130120F1F60895880F991FFC01EE0FFF1FEE0FE3
S1130130FF1FEE0FFF1FE81BF90BE050FF4F20E0FD
S113014030E0CDCF8FE28AB98FE384B9589A599AB7
S11301505A9A5B9A60E070E085E090E00E944B0060
S11301602FE986E891E0215080409040E1F700C0FB
S1130170000061E070E085E090E00E944B002FE910
S113018086E891E0215080409040E1F700C00000F3
S113019060E070E085E090E00E944B002FE986E883
S11301A091E0215080409040E1F700C0000061E000
S11301B070E085E090E00E944B002FE986E891E032
S11301C0215080409040E1F700C00000C3CFF89474
S10501D0FFCF5B
S11301D20100010001000100010001000000000013
S11301E20100010000000000000000000100010005
S11301F200000100010000000100010001000100F3
S113020201000000000001000000010001000000E4
S113021200000100010001000000010001000000D3
S113022201000100010000000100010001000100C1
S113023201000100010001000000000000000000B4
S113024201000100010001000100010001000100A0
S10F025201000100000000000100010098
S9030000FC
